{
  "contractName": "Trades",
  "abi": [
    {
      "inputs": [],
      "stateMutability": "nonpayable",
      "type": "constructor"
    },
    {
      "inputs": [],
      "name": "exchangeRate",
      "outputs": [
        {
          "internalType": "uint256",
          "name": "",
          "type": "uint256"
        }
      ],
      "stateMutability": "view",
      "type": "function",
      "constant": true
    },
    {
      "inputs": [
        {
          "internalType": "address",
          "name": "",
          "type": "address"
        },
        {
          "internalType": "address",
          "name": "",
          "type": "address"
        }
      ],
      "name": "status",
      "outputs": [
        {
          "internalType": "string",
          "name": "",
          "type": "string"
        }
      ],
      "stateMutability": "view",
      "type": "function",
      "constant": true
    },
    {
      "inputs": [
        {
          "internalType": "address",
          "name": "",
          "type": "address"
        },
        {
          "internalType": "address",
          "name": "",
          "type": "address"
        }
      ],
      "name": "tokenSale",
      "outputs": [
        {
          "internalType": "uint256",
          "name": "",
          "type": "uint256"
        }
      ],
      "stateMutability": "view",
      "type": "function",
      "constant": true
    },
    {
      "inputs": [],
      "name": "transactionCount",
      "outputs": [
        {
          "internalType": "uint256",
          "name": "",
          "type": "uint256"
        }
      ],
      "stateMutability": "view",
      "type": "function",
      "constant": true
    },
    {
      "inputs": [
        {
          "internalType": "uint256",
          "name": "",
          "type": "uint256"
        }
      ],
      "name": "transactions",
      "outputs": [
        {
          "internalType": "address",
          "name": "from",
          "type": "address"
        },
        {
          "internalType": "address",
          "name": "to",
          "type": "address"
        },
        {
          "internalType": "string",
          "name": "status",
          "type": "string"
        },
        {
          "internalType": "uint256",
          "name": "tokens",
          "type": "uint256"
        },
        {
          "internalType": "uint256",
          "name": "cost",
          "type": "uint256"
        }
      ],
      "stateMutability": "view",
      "type": "function",
      "constant": true
    },
    {
      "inputs": [
        {
          "internalType": "address",
          "name": "_to",
          "type": "address"
        },
        {
          "internalType": "uint256",
          "name": "_amount",
          "type": "uint256"
        }
      ],
      "name": "initiateTrade",
      "outputs": [
        {
          "internalType": "uint256",
          "name": "",
          "type": "uint256"
        },
        {
          "internalType": "string",
          "name": "",
          "type": "string"
        }
      ],
      "stateMutability": "nonpayable",
      "type": "function"
    },
    {
      "inputs": [
        {
          "internalType": "address",
          "name": "_to",
          "type": "address"
        },
        {
          "internalType": "uint256",
          "name": "_amount",
          "type": "uint256"
        },
        {
          "internalType": "uint256",
          "name": "_exchangeRate",
          "type": "uint256"
        }
      ],
      "name": "initiateTradeManualRate",
      "outputs": [
        {
          "internalType": "uint256",
          "name": "",
          "type": "uint256"
        },
        {
          "internalType": "string",
          "name": "",
          "type": "string"
        }
      ],
      "stateMutability": "nonpayable",
      "type": "function"
    },
    {
      "inputs": [
        {
          "internalType": "address payable",
          "name": "_from",
          "type": "address"
        }
      ],
      "name": "acceptTrade",
      "outputs": [
        {
          "internalType": "uint256",
          "name": "",
          "type": "uint256"
        },
        {
          "internalType": "string",
          "name": "",
          "type": "string"
        }
      ],
      "stateMutability": "payable",
      "type": "function",
      "payable": true
    },
    {
      "inputs": [
        {
          "internalType": "address payable",
          "name": "_from",
          "type": "address"
        },
        {
          "internalType": "uint256",
          "name": "_id",
          "type": "uint256"
        }
      ],
      "name": "acceptTradeManual",
      "outputs": [
        {
          "internalType": "uint256",
          "name": "",
          "type": "uint256"
        },
        {
          "internalType": "string",
          "name": "",
          "type": "string"
        }
      ],
      "stateMutability": "payable",
      "type": "function",
      "payable": true
    },
    {
      "inputs": [
        {
          "internalType": "address payable",
          "name": "_to",
          "type": "address"
        }
      ],
      "name": "finalizeTrade",
      "outputs": [
        {
          "internalType": "uint256",
          "name": "",
          "type": "uint256"
        },
        {
          "internalType": "string",
          "name": "",
          "type": "string"
        }
      ],
      "stateMutability": "nonpayable",
      "type": "function"
    }
  ],
  "bytecode": "0x608060405234801561001057600080fd5b50600060048190555067019ab7e551d9f0006002819055506121ba806100376000396000f3fe6080604052600436106100915760003560e01c806387ac34b41161005957806387ac34b4146101b75780639ace38c2146101e8578063a557c2cf14610229578063a86903a614610267578063b77bf6001461029857610091565b80630a72cad1146100965780630a7bb3f9146100d45780632f0e3a6c146101125780633ba0b9a91461014f57806386f3584c1461017a575b600080fd5b3480156100a257600080fd5b506100bd60048036038101906100b89190611ab2565b6102c3565b6040516100cb929190612041565b60405180910390f35b3480156100e057600080fd5b506100fb60048036038101906100f69190611aee565b61065b565b604051610109929190612041565b60405180910390f35b34801561011e57600080fd5b5061013960048036038101906101349190611a76565b6109f2565b6040516101469190611f64565b60405180910390f35b34801561015b57600080fd5b50610164610aaf565b6040516101719190612026565b60405180910390f35b34801561018657600080fd5b506101a1600480360381019061019c9190611a76565b610ab5565b6040516101ae9190612026565b60405180910390f35b6101d160048036038101906101cc9190611a11565b610ada565b6040516101df929190612041565b60405180910390f35b3480156101f457600080fd5b5061020f600480360381019061020a9190611b3d565b610f8e565b604051610220959493929190611f0a565b60405180910390f35b34801561023557600080fd5b50610250600480360381019061024b9190611a11565b6110a9565b60405161025e929190612041565b60405180910390f35b610281600480360381019061027c9190611a3a565b611581565b60405161028f929190612041565b60405180910390f35b3480156102a457600080fd5b506102ad6118cc565b6040516102ba9190612026565b60405180910390f35b600060608373ffffffffffffffffffffffffffffffffffffffff163373ffffffffffffffffffffffffffffffffffffffff161415610336576040517f08c379a000000000000000000000000000000000000000000000000000000000815260040161032d90611fe6565b60405180910390fd5b826000803373ffffffffffffffffffffffffffffffffffffffff1673ffffffffffffffffffffffffffffffffffffffff16815260200190815260200160002060008673ffffffffffffffffffffffffffffffffffffffff1673ffffffffffffffffffffffffffffffffffffffff168152602001908152602001600020819055506040518060400160405280600781526020017f70656e64696e6700000000000000000000000000000000000000000000000000815250600160003373ffffffffffffffffffffffffffffffffffffffff1673ffffffffffffffffffffffffffffffffffffffff16815260200190815260200160002060008673ffffffffffffffffffffffffffffffffffffffff1673ffffffffffffffffffffffffffffffffffffffff168152602001908152602001600020908051906020019061047b9291906118d2565b50610484611952565b6040518060a001604052803373ffffffffffffffffffffffffffffffffffffffff1681526020018673ffffffffffffffffffffffffffffffffffffffff1681526020016040518060400160405280600781526020017f70656e64696e6700000000000000000000000000000000000000000000000000815250815260200185815260200185600254028152509050600381908060018154018082558091505060019003906000526020600020906005020160009091909190915060008201518160000160006101000a81548173ffffffffffffffffffffffffffffffffffffffff021916908373ffffffffffffffffffffffffffffffffffffffff16021790555060208201518160010160006101000a81548173ffffffffffffffffffffffffffffffffffffffff021916908373ffffffffffffffffffffffffffffffffffffffff16021790555060408201518160020190805190602001906105e89291906118d2565b5060608201518160030155608082015181600401555050600060045490506001600460008282540192505081905550806040518060400160405280600781526020017f70656e64696e67000000000000000000000000000000000000000000000000008152509350935050509250929050565b600060608473ffffffffffffffffffffffffffffffffffffffff163373ffffffffffffffffffffffffffffffffffffffff1614156106ce576040517f08c379a00000000000000000000000000000000000000000000000000000000081526004016106c590611fe6565b60405180910390fd5b836000803373ffffffffffffffffffffffffffffffffffffffff1673ffffffffffffffffffffffffffffffffffffffff16815260200190815260200160002060008773ffffffffffffffffffffffffffffffffffffffff1673ffffffffffffffffffffffffffffffffffffffff168152602001908152602001600020819055506040518060400160405280600781526020017f70656e64696e6700000000000000000000000000000000000000000000000000815250600160003373ffffffffffffffffffffffffffffffffffffffff1673ffffffffffffffffffffffffffffffffffffffff16815260200190815260200160002060008773ffffffffffffffffffffffffffffffffffffffff1673ffffffffffffffffffffffffffffffffffffffff16815260200190815260200160002090805190602001906108139291906118d2565b5061081c611952565b6040518060a001604052803373ffffffffffffffffffffffffffffffffffffffff1681526020018773ffffffffffffffffffffffffffffffffffffffff1681526020016040518060400160405280600781526020017f70656e64696e670000000000000000000000000000000000000000000000000081525081526020018681526020018686028152509050600381908060018154018082558091505060019003906000526020600020906005020160009091909190915060008201518160000160006101000a81548173ffffffffffffffffffffffffffffffffffffffff021916908373ffffffffffffffffffffffffffffffffffffffff16021790555060208201518160010160006101000a81548173ffffffffffffffffffffffffffffffffffffffff021916908373ffffffffffffffffffffffffffffffffffffffff160217905550604082015181600201908051906020019061097e9291906118d2565b5060608201518160030155608082015181600401555050600060045490506001600460008282540192505081905550806040518060400160405280600781526020017f70656e64696e6700000000000000000000000000000000000000000000000000815250935093505050935093915050565b6001602052816000526040600020602052806000526040600020600091509150508054600181600116156101000203166002900480601f016020809104026020016040519081016040528092919081815260200182805460018160011615610100020316600290048015610aa75780601f10610a7c57610100808354040283529160200191610aa7565b820191906000526020600020905b815481529060010190602001808311610a8a57829003601f168201915b505050505081565b60025481565b6000602052816000526040600020602052806000526040600020600091509150505481565b60006060604051602001610aed90611ef5565b60405160208183030381529060405280519060200120600160008573ffffffffffffffffffffffffffffffffffffffff1673ffffffffffffffffffffffffffffffffffffffff16815260200190815260200160002060003373ffffffffffffffffffffffffffffffffffffffff1673ffffffffffffffffffffffffffffffffffffffff168152602001908152602001600020604051602001610b8f9190611ec9565b6040516020818303038152906040528051906020012014610be5576040517f08c379a0000000000000000000000000000000000000000000000000000000008152600401610bdc90612006565b60405180910390fd5b8273ffffffffffffffffffffffffffffffffffffffff163373ffffffffffffffffffffffffffffffffffffffff161415610c54576040517f08c379a0000000000000000000000000000000000000000000000000000000008152600401610c4b90611fc6565b60405180910390fd5b6002546000808573ffffffffffffffffffffffffffffffffffffffff1673ffffffffffffffffffffffffffffffffffffffff16815260200190815260200160002060003373ffffffffffffffffffffffffffffffffffffffff1673ffffffffffffffffffffffffffffffffffffffff1681526020019081526020016000205402341015610d16576040517f08c379a0000000000000000000000000000000000000000000000000000000008152600401610d0d90611f86565b60405180910390fd5b60008090505b600454811015610e1f578373ffffffffffffffffffffffffffffffffffffffff1660038281548110610d4a57fe5b906000526020600020906005020160000160009054906101000a900473ffffffffffffffffffffffffffffffffffffffff1673ffffffffffffffffffffffffffffffffffffffff16148015610e0857503373ffffffffffffffffffffffffffffffffffffffff1660038281548110610dbe57fe5b906000526020600020906005020160010160009054906101000a900473ffffffffffffffffffffffffffffffffffffffff1673ffffffffffffffffffffffffffffffffffffffff16145b15610e1257610e1f565b8080600101915050610d1c565b6040518060400160405280600a81526020017f66696e616c697a696e6700000000000000000000000000000000000000000000815250600160008673ffffffffffffffffffffffffffffffffffffffff1673ffffffffffffffffffffffffffffffffffffffff16815260200190815260200160002060003373ffffffffffffffffffffffffffffffffffffffff1673ffffffffffffffffffffffffffffffffffffffff1681526020019081526020016000209080519060200190610ee49291906118d2565b506040518060400160405280600a81526020017f66696e616c697a696e670000000000000000000000000000000000000000000081525060038281548110610f2857fe5b90600052602060002090600502016002019080519060200190610f4c9291906118d2565b50806040518060400160405280600a81526020017f66696e616c697a696e67000000000000000000000000000000000000000000008152509250925050915091565b60038181548110610f9b57fe5b90600052602060002090600502016000915090508060000160009054906101000a900473ffffffffffffffffffffffffffffffffffffffff16908060010160009054906101000a900473ffffffffffffffffffffffffffffffffffffffff1690806002018054600181600116156101000203166002900480601f0160208091040260200160405190810160405280929190818152602001828054600181600116156101000203166002900480156110935780601f1061106857610100808354040283529160200191611093565b820191906000526020600020905b81548152906001019060200180831161107657829003601f168201915b5050505050908060030154908060040154905085565b600060606040516020016110bc90611ee0565b60405160208183030381529060405280519060200120600160003373ffffffffffffffffffffffffffffffffffffffff1673ffffffffffffffffffffffffffffffffffffffff16815260200190815260200160002060008573ffffffffffffffffffffffffffffffffffffffff1673ffffffffffffffffffffffffffffffffffffffff16815260200190815260200160002060405160200161115e9190611ec9565b60405160208183030381529060405280519060200120146111b4576040517f08c379a00000000000000000000000000000000000000000000000000000000081526004016111ab90611fa6565b60405180910390fd5b8273ffffffffffffffffffffffffffffffffffffffff163373ffffffffffffffffffffffffffffffffffffffff161415611223576040517f08c379a000000000000000000000000000000000000000000000000000000000815260040161121a90611fe6565b60405180910390fd5b60008090505b60045481101561132c573373ffffffffffffffffffffffffffffffffffffffff166003828154811061125757fe5b906000526020600020906005020160000160009054906101000a900473ffffffffffffffffffffffffffffffffffffffff1673ffffffffffffffffffffffffffffffffffffffff1614801561131557508373ffffffffffffffffffffffffffffffffffffffff16600382815481106112cb57fe5b906000526020600020906005020160010160009054906101000a900473ffffffffffffffffffffffffffffffffffffffff1673ffffffffffffffffffffffffffffffffffffffff16145b1561131f5761132c565b8080600101915050611229565b60008060003373ffffffffffffffffffffffffffffffffffffffff1673ffffffffffffffffffffffffffffffffffffffff16815260200190815260200160002060008673ffffffffffffffffffffffffffffffffffffffff1673ffffffffffffffffffffffffffffffffffffffff168152602001908152602001600020819055503373ffffffffffffffffffffffffffffffffffffffff166108fc600383815481106113d457fe5b9060005260206000209060050201600401549081150290604051600060405180830381858888f19350505050158015611411573d6000803e3d6000fd5b506040518060400160405280600781526020017f7375636365737300000000000000000000000000000000000000000000000000815250600160003373ffffffffffffffffffffffffffffffffffffffff1673ffffffffffffffffffffffffffffffffffffffff16815260200190815260200160002060008673ffffffffffffffffffffffffffffffffffffffff1673ffffffffffffffffffffffffffffffffffffffff16815260200190815260200160002090805190602001906114d79291906118d2565b506040518060400160405280600781526020017f73756363657373000000000000000000000000000000000000000000000000008152506003828154811061151b57fe5b9060005260206000209060050201600201908051906020019061153f9291906118d2565b50806040518060400160405280600781526020017f73756363657373000000000000000000000000000000000000000000000000008152509250925050915091565b6000606060405160200161159490611ef5565b60405160208183030381529060405280519060200120600160008673ffffffffffffffffffffffffffffffffffffffff1673ffffffffffffffffffffffffffffffffffffffff16815260200190815260200160002060003373ffffffffffffffffffffffffffffffffffffffff1673ffffffffffffffffffffffffffffffffffffffff1681526020019081526020016000206040516020016116369190611ec9565b604051602081830303815290604052805190602001201461168c576040517f08c379a000000000000000000000000000000000000000000000000000000000815260040161168390612006565b60405180910390fd5b8373ffffffffffffffffffffffffffffffffffffffff163373ffffffffffffffffffffffffffffffffffffffff1614156116fb576040517f08c379a00000000000000000000000000000000000000000000000000000000081526004016116f290611fc6565b60405180910390fd5b6003838154811061170857fe5b90600052602060002090600502016004015434101561175c576040517f08c379a000000000000000000000000000000000000000000000000000000000815260040161175390611f86565b60405180910390fd5b6040518060400160405280600a81526020017f66696e616c697a696e6700000000000000000000000000000000000000000000815250600160008673ffffffffffffffffffffffffffffffffffffffff1673ffffffffffffffffffffffffffffffffffffffff16815260200190815260200160002060003373ffffffffffffffffffffffffffffffffffffffff1673ffffffffffffffffffffffffffffffffffffffff16815260200190815260200160002090805190602001906118219291906118d2565b506040518060400160405280600a81526020017f66696e616c697a696e67000000000000000000000000000000000000000000008152506003848154811061186557fe5b906000526020600020906005020160020190805190602001906118899291906118d2565b50826040518060400160405280600a81526020017f66696e616c697a696e6700000000000000000000000000000000000000000000815250915091509250929050565b60045481565b828054600181600116156101000203166002900490600052602060002090601f016020900481019282601f1061191357805160ff1916838001178555611941565b82800160010185558215611941579182015b82811115611940578251825591602001919060010190611925565b5b50905061194e91906119ad565b5090565b6040518060a00160405280600073ffffffffffffffffffffffffffffffffffffffff168152602001600073ffffffffffffffffffffffffffffffffffffffff1681526020016060815260200160008152602001600081525090565b6119cf91905b808211156119cb5760008160009055506001016119b3565b5090565b90565b6000813590506119e18161213f565b92915050565b6000813590506119f681612156565b92915050565b600081359050611a0b8161216d565b92915050565b600060208284031215611a2357600080fd5b6000611a31848285016119e7565b91505092915050565b60008060408385031215611a4d57600080fd5b6000611a5b858286016119e7565b9250506020611a6c858286016119fc565b9150509250929050565b60008060408385031215611a8957600080fd5b6000611a97858286016119d2565b9250506020611aa8858286016119d2565b9150509250929050565b60008060408385031215611ac557600080fd5b6000611ad3858286016119d2565b9250506020611ae4858286016119fc565b9150509250929050565b600080600060608486031215611b0357600080fd5b6000611b11868287016119d2565b9350506020611b22868287016119fc565b9250506040611b33868287016119fc565b9150509250925092565b600060208284031215611b4f57600080fd5b6000611b5d848285016119fc565b91505092915050565b611b6f816120ad565b82525050565b6000611b8082612086565b611b8a8185612091565b9350611b9a8185602086016120fb565b611ba38161212e565b840191505092915050565b600081546001811660008114611bcb5760018114611bf057611c34565b607f6002830416611bdc81876120a2565b955060ff1983168652808601935050611c34565b60028204611bfe81876120a2565b9550611c0985612071565b60005b82811015611c2b57815481890152600182019150602081019050611c0c565b82880195505050505b505092915050565b6000611c49602483612091565b91507f596f7520646964206e6f74207061792074686520726571756972656420616d6f60008301527f756e742e000000000000000000000000000000000000000000000000000000006020830152604082019050919050565b6000611caf604b83612091565b91507f54686973207472616e73616374696f6e20646f65736e27742065786973742c2060008301527f7374696c6c206177616974696e6720617070726f76616c206f7220697320616c60208301527f7265616479206f7665722e0000000000000000000000000000000000000000006040830152606082019050919050565b6000611d3b601883612091565b91507f43616e2774206275792066726f6d20796f757273656c662e00000000000000006000830152602082019050919050565b6000611d7b600a836120a2565b91507f66696e616c697a696e67000000000000000000000000000000000000000000006000830152600a82019050919050565b6000611dbb601783612091565b91507f43616e27742073656c6c20746f20796f757273656c662e0000000000000000006000830152602082019050919050565b6000611dfb6007836120a2565b91507f70656e64696e67000000000000000000000000000000000000000000000000006000830152600782019050919050565b6000611e3b604683612091565b91507f54686973207472616e73616374696f6e20646f65736e27742065786973742c2060008301527f6973206265696e672066696e616c697a6564206f7220697320616c726561647960208301527f206f7665722e00000000000000000000000000000000000000000000000000006040830152606082019050919050565b611ec3816120f1565b82525050565b6000611ed58284611bae565b915081905092915050565b6000611eeb82611d6e565b9150819050919050565b6000611f0082611dee565b9150819050919050565b600060a082019050611f1f6000830188611b66565b611f2c6020830187611b66565b8181036040830152611f3e8186611b75565b9050611f4d6060830185611eba565b611f5a6080830184611eba565b9695505050505050565b60006020820190508181036000830152611f7e8184611b75565b905092915050565b60006020820190508181036000830152611f9f81611c3c565b9050919050565b60006020820190508181036000830152611fbf81611ca2565b9050919050565b60006020820190508181036000830152611fdf81611d2e565b9050919050565b60006020820190508181036000830152611fff81611dae565b9050919050565b6000602082019050818103600083015261201f81611e2e565b9050919050565b600060208201905061203b6000830184611eba565b92915050565b60006040820190506120566000830185611eba565b81810360208301526120688184611b75565b90509392505050565b60008190508160005260206000209050919050565b600081519050919050565b600082825260208201905092915050565b600081905092915050565b60006120b8826120d1565b9050919050565b60006120ca826120d1565b9050919050565b600073ffffffffffffffffffffffffffffffffffffffff82169050919050565b6000819050919050565b60005b838110156121195780820151818401526020810190506120fe565b83811115612128576000848401525b50505050565b6000601f19601f8301169050919050565b612148816120ad565b811461215357600080fd5b50565b61215f816120bf565b811461216a57600080fd5b50565b612176816120f1565b811461218157600080fd5b5056fea2646970667358221220eaf7d626b099940ff125b2096de8f7e9745ce20844ec70bb492a0bc36cecf55e64736f6c63430006060033",
  "immutableReferences": {},
  "source": "pragma solidity ^0.6.0;\r\npragma experimental ABIEncoderV2;\r\n\r\ncontract Trades {\r\n    mapping(address=>mapping(address=>uint256)) public tokenSale;\r\n    mapping(address=>mapping(address=>string)) public status;\r\n    uint256 public exchangeRate;\r\n    Transaction[] public transactions;\r\n    uint256 public transactionCount;\r\n    \r\n    struct Transaction{\r\n        address from;\r\n        address to;\r\n        string status;\r\n        uint256 tokens;\r\n        uint256 cost;\r\n    }\r\n    \r\n    constructor() public{\r\n        transactionCount = 0;\r\n        exchangeRate = 115606936000000000; //0.115606936 ether\r\n    }\r\n    \r\n    function initiateTrade(address _to, uint256 _amount) public returns(uint256, string memory){\r\n        \r\n        require(msg.sender!=_to, \"Can't sell to yourself.\");\r\n        tokenSale[msg.sender][_to] = _amount;\r\n        status[msg.sender][_to] = \"pending\";\r\n        Transaction memory transaction = Transaction(msg.sender, _to, \"pending\", _amount, exchangeRate*_amount);\r\n        transactions.push(transaction);\r\n        uint256 id = transactionCount;\r\n        transactionCount+=1;\r\n        return (id, \"pending\");\r\n    }\r\n    function initiateTradeManualRate(address _to, uint256 _amount, uint256 _exchangeRate) public returns(uint256, string memory){\r\n        \r\n        require(msg.sender!=_to, \"Can't sell to yourself.\");\r\n        tokenSale[msg.sender][_to] = _amount;\r\n        status[msg.sender][_to] = \"pending\";\r\n        Transaction memory transaction = Transaction(msg.sender, _to, \"pending\", _amount, _exchangeRate*_amount);\r\n        transactions.push(transaction);\r\n        uint256 id = transactionCount;\r\n        transactionCount+=1;\r\n        return (id, \"pending\");\r\n    }\r\n    function acceptTrade(address payable _from) public payable returns(uint256, string memory){\r\n        require(keccak256(abi.encodePacked((status[_from][msg.sender]))) == keccak256(abi.encodePacked((\"pending\"))) , \r\n        \"This transaction doesn't exist, is being finalized or is already over.\");\r\n        require(msg.sender!=_from, \"Can't buy from yourself.\");\r\n        require(msg.value>=tokenSale[_from][msg.sender]*exchangeRate, \"You did not pay the required amount.\");\r\n        uint256 id = 0;\r\n        for(;id<transactionCount;id++){\r\n            if(transactions[id].from==_from &&transactions[id].to==msg.sender){\r\n                break;\r\n            }\r\n        }\r\n        status[_from][msg.sender] = \"finalizing\";\r\n        transactions[id].status = \"finalizing\";\r\n        return(id, \"finalizing\");\r\n    }\r\n    function acceptTradeManual(address payable _from, uint256 _id) public payable returns(uint256, string memory){\r\n        require(keccak256(abi.encodePacked((status[_from][msg.sender]))) == keccak256(abi.encodePacked((\"pending\"))) , \r\n        \"This transaction doesn't exist, is being finalized or is already over.\");\r\n        require(msg.sender!=_from, \"Can't buy from yourself.\");\r\n        require(msg.value>=transactions[_id].cost, \"You did not pay the required amount.\");\r\n        status[_from][msg.sender] = \"finalizing\";\r\n        transactions[_id].status = \"finalizing\";\r\n        return(_id, \"finalizing\");\r\n    }\r\n    //cancelTrade function in future\r\n    function finalizeTrade(address payable _to) public returns(uint256, string memory){\r\n        require(keccak256(abi.encodePacked((status[msg.sender][_to]))) == keccak256(abi.encodePacked((\"finalizing\"))) , \r\n        \"This transaction doesn't exist, still awaiting approval or is already over.\");\r\n        require(msg.sender!=_to, \"Can't sell to yourself.\");\r\n        uint256 id = 0;\r\n        for(;id<transactionCount;id++){\r\n            if(transactions[id].from==msg.sender &&transactions[id].to==_to){\r\n                break;\r\n            }\r\n        }\r\n        tokenSale[msg.sender][_to] = 0;\r\n        msg.sender.transfer(transactions[id].cost);\r\n        status[msg.sender][_to] = \"success\";\r\n        transactions[id].status = \"success\";\r\n        return(id, \"success\");\r\n    }\r\n    \r\n}\r\n",
  "sourcePath": "D:\\Programming\\Ethereum\\Project\\carbon-credit-market---t319\\src\\backend\\contracts\\Trades.sol",
  "compiler": {
    "name": "solc",
    "version": "0.6.6+commit.6c089d02.Emscripten.clang"
  },
  "schemaVersion": "3.1.0",
  "updatedAt": "2020-06-04T06:51:09.902Z",
  "networkType": "ethereum",
  "devdoc": {
    "methods": {}
  },
  "userdoc": {
    "methods": {}
  }
}