{
  "contractName": "Users",
  "abi": [
    {
      "inputs": [],
      "stateMutability": "nonpayable",
      "type": "constructor"
    },
    {
      "inputs": [
        {
          "internalType": "uint256",
          "name": "",
          "type": "uint256"
        },
        {
          "internalType": "uint256",
          "name": "",
          "type": "uint256"
        },
        {
          "internalType": "uint256",
          "name": "",
          "type": "uint256"
        }
      ],
      "name": "coordinates",
      "outputs": [
        {
          "internalType": "string",
          "name": "",
          "type": "string"
        }
      ],
      "stateMutability": "view",
      "type": "function",
      "constant": true
    },
    {
      "inputs": [
        {
          "internalType": "address",
          "name": "",
          "type": "address"
        }
      ],
      "name": "name",
      "outputs": [
        {
          "internalType": "string",
          "name": "",
          "type": "string"
        }
      ],
      "stateMutability": "view",
      "type": "function",
      "constant": true
    },
    {
      "inputs": [
        {
          "internalType": "address",
          "name": "",
          "type": "address"
        }
      ],
      "name": "sequestrationRate",
      "outputs": [
        {
          "internalType": "uint256",
          "name": "",
          "type": "uint256"
        }
      ],
      "stateMutability": "view",
      "type": "function",
      "constant": true
    },
    {
      "inputs": [],
      "name": "system",
      "outputs": [
        {
          "internalType": "address",
          "name": "",
          "type": "address"
        }
      ],
      "stateMutability": "view",
      "type": "function",
      "constant": true
    },
    {
      "inputs": [],
      "name": "tenementCount",
      "outputs": [
        {
          "internalType": "uint256",
          "name": "",
          "type": "uint256"
        }
      ],
      "stateMutability": "view",
      "type": "function",
      "constant": true
    },
    {
      "inputs": [
        {
          "internalType": "uint256",
          "name": "",
          "type": "uint256"
        }
      ],
      "name": "tenements",
      "outputs": [
        {
          "internalType": "string",
          "name": "name",
          "type": "string"
        },
        {
          "internalType": "uint256",
          "name": "id",
          "type": "uint256"
        },
        {
          "internalType": "uint256",
          "name": "sequestrationRate",
          "type": "uint256"
        },
        {
          "internalType": "address",
          "name": "owner",
          "type": "address"
        }
      ],
      "stateMutability": "view",
      "type": "function",
      "constant": true
    },
    {
      "inputs": [
        {
          "internalType": "address payable",
          "name": "_user",
          "type": "address"
        },
        {
          "internalType": "string",
          "name": "_name",
          "type": "string"
        },
        {
          "internalType": "string",
          "name": "_userid",
          "type": "string"
        }
      ],
      "name": "register",
      "outputs": [],
      "stateMutability": "nonpayable",
      "type": "function"
    },
    {
      "inputs": [
        {
          "internalType": "string",
          "name": "_name",
          "type": "string"
        },
        {
          "internalType": "address payable",
          "name": "_owner",
          "type": "address"
        },
        {
          "internalType": "uint256",
          "name": "_sequestrationRate",
          "type": "uint256"
        },
        {
          "internalType": "string[][]",
          "name": "_coordinates",
          "type": "string[][]"
        }
      ],
      "name": "addTenement",
      "outputs": [],
      "stateMutability": "nonpayable",
      "type": "function"
    },
    {
      "inputs": [
        {
          "internalType": "uint256",
          "name": "_id",
          "type": "uint256"
        },
        {
          "internalType": "string[][]",
          "name": "_coordinates",
          "type": "string[][]"
        },
        {
          "internalType": "uint256",
          "name": "_sequestrationRate",
          "type": "uint256"
        }
      ],
      "name": "modifyTenement",
      "outputs": [],
      "stateMutability": "nonpayable",
      "type": "function"
    },
    {
      "inputs": [
        {
          "internalType": "uint256",
          "name": "_id",
          "type": "uint256"
        },
        {
          "internalType": "address",
          "name": "_oldOwner",
          "type": "address"
        },
        {
          "internalType": "address",
          "name": "_newOwner",
          "type": "address"
        }
      ],
      "name": "changeTenementOwner",
      "outputs": [],
      "stateMutability": "nonpayable",
      "type": "function"
    }
  ],
  "bytecode": "0x608060405234801561001057600080fd5b5033600260006101000a81548173ffffffffffffffffffffffffffffffffffffffff021916908373ffffffffffffffffffffffffffffffffffffffff1602179055506000600581905550611f0f806100696000396000f3fe608060405234801561001057600080fd5b506004361061009e5760003560e01c8063892d149611610066578063892d1496146101705780638d59cc021461018c57806395bf75fd146101a85780639f9f1672146101c6578063cd6ec82d146101f65761009e565b806301984892146100a35780630447d101146100d357806305ecff0814610106578063284ca433146101365780635876f89914610152575b600080fd5b6100bd60048036038101906100b89190611430565b610212565b6040516100ca9190611b1a565b60405180910390f35b6100ed60048036038101906100e8919061156b565b6102c2565b6040516100fd9493929190611b3c565b60405180910390f35b610120600480360381019061011b9190611430565b6103aa565b60405161012d9190611d08565b60405180910390f35b610150600480360381019061014b9190611594565b6103c2565b005b61015a6106f6565b6040516101679190611d08565b60405180910390f35b61018a600480360381019061018591906114d8565b6106fc565b005b6101a660048036038101906101a19190611459565b6109ef565b005b6101b0610cb5565b6040516101bd9190611aff565b60405180910390f35b6101e060048036038101906101db919061164a565b610cdb565b6040516101ed9190611b1a565b60405180910390f35b610210600480360381019061020b91906115e3565b610db7565b005b60006020528060005260406000206000915090508054600181600116156101000203166002900480601f0160208091040260200160405190810160405280929190818152602001828054600181600116156101000203166002900480156102ba5780601f1061028f576101008083540402835291602001916102ba565b820191906000526020600020905b81548152906001019060200180831161029d57829003601f168201915b505050505081565b6003602052806000526040600020600091509050806000018054600181600116156101000203166002900480601f01602080910402602001604051908101604052809291908181526020018280546001816001161561010002031660029004801561036e5780601f106103435761010080835404028352916020019161036e565b820191906000526020600020905b81548152906001019060200180831161035157829003601f168201915b5050505050908060010154908060020154908060030160009054906101000a900473ffffffffffffffffffffffffffffffffffffffff16905084565b60046020528060005260406000206000915090505481565b600260009054906101000a900473ffffffffffffffffffffffffffffffffffffffff1673ffffffffffffffffffffffffffffffffffffffff163373ffffffffffffffffffffffffffffffffffffffff1614610452576040517f08c379a000000000000000000000000000000000000000000000000000000000815260040161044990611ca8565b60405180910390fd5b600073ffffffffffffffffffffffffffffffffffffffff168273ffffffffffffffffffffffffffffffffffffffff1614156104c2576040517f08c379a00000000000000000000000000000000000000000000000000000000081526004016104b990611c48565b60405180910390fd5b600073ffffffffffffffffffffffffffffffffffffffff168173ffffffffffffffffffffffffffffffffffffffff161415610532576040517f08c379a000000000000000000000000000000000000000000000000000000000815260040161052990611be8565b60405180910390fd5b8173ffffffffffffffffffffffffffffffffffffffff166003600085815260200190815260200160002060030160009054906101000a900473ffffffffffffffffffffffffffffffffffffffff1673ffffffffffffffffffffffffffffffffffffffff16146105d6576040517f08c379a00000000000000000000000000000000000000000000000000000000081526004016105cd90611c08565b60405180910390fd5b806003600085815260200190815260200160002060030160006101000a81548173ffffffffffffffffffffffffffffffffffffffff021916908373ffffffffffffffffffffffffffffffffffffffff1602179055506003600084815260200190815260200160002060020154600460008473ffffffffffffffffffffffffffffffffffffffff1673ffffffffffffffffffffffffffffffffffffffff168152602001908152602001600020600082825403925050819055506003600084815260200190815260200160002060020154600460008373ffffffffffffffffffffffffffffffffffffffff1673ffffffffffffffffffffffffffffffffffffffff16815260200190815260200160002060008282540192505081905550505050565b60055481565b600260009054906101000a900473ffffffffffffffffffffffffffffffffffffffff1673ffffffffffffffffffffffffffffffffffffffff163373ffffffffffffffffffffffffffffffffffffffff161461078c576040517f08c379a000000000000000000000000000000000000000000000000000000000815260040161078390611ce8565b60405180910390fd5b600073ffffffffffffffffffffffffffffffffffffffff168373ffffffffffffffffffffffffffffffffffffffff1614156107fc576040517f08c379a00000000000000000000000000000000000000000000000000000000081526004016107f390611c88565b60405180910390fd5b60405160200161080b90611aea565b60405160208183030381529060405280519060200120846040516020016108329190611ad3565b604051602081830303815290604052805190602001201415610889576040517f08c379a000000000000000000000000000000000000000000000000000000000815260040161088090611bc8565b60405180910390fd5b60006005549050610898611051565b60405180608001604052808781526020018381526020018581526020018673ffffffffffffffffffffffffffffffffffffffff168152509050826006600084815260200190815260200160002090805190602001906108f892919061108f565b50806003600084815260200190815260200160002060008201518160000190805190602001906109299291906110ef565b50602082015181600101556040820151816002015560608201518160030160006101000a81548173ffffffffffffffffffffffffffffffffffffffff021916908373ffffffffffffffffffffffffffffffffffffffff16021790555090505060056000815480929190600101919050555083600460008773ffffffffffffffffffffffffffffffffffffffff1673ffffffffffffffffffffffffffffffffffffffff16815260200190815260200160002060008282540192505081905550505050505050565b600073ffffffffffffffffffffffffffffffffffffffff168373ffffffffffffffffffffffffffffffffffffffff161415610a5f576040517f08c379a0000000000000000000000000000000000000000000000000000000008152600401610a5690611ba8565b60405180910390fd5b604051602001610a6e90611aea565b6040516020818303038152906040528051906020012082604051602001610a959190611ad3565b604051602081830303815290604052805190602001201415610aec576040517f08c379a0000000000000000000000000000000000000000000000000000000008152600401610ae390611bc8565b60405180910390fd5b604051602001610afb90611aea565b6040516020818303038152906040528051906020012081604051602001610b229190611ad3565b604051602081830303815290604052805190602001201415610b79576040517f08c379a0000000000000000000000000000000000000000000000000000000008152600401610b7090611c68565b60405180910390fd5b600260009054906101000a900473ffffffffffffffffffffffffffffffffffffffff1673ffffffffffffffffffffffffffffffffffffffff163373ffffffffffffffffffffffffffffffffffffffff1614610c09576040517f08c379a0000000000000000000000000000000000000000000000000000000008152600401610c0090611c28565b60405180910390fd5b816000808573ffffffffffffffffffffffffffffffffffffffff1673ffffffffffffffffffffffffffffffffffffffff1681526020019081526020016000209080519060200190610c5b9291906110ef565b5080600160008573ffffffffffffffffffffffffffffffffffffffff1673ffffffffffffffffffffffffffffffffffffffff1681526020019081526020016000209080519060200190610caf9291906110ef565b50505050565b600260009054906101000a900473ffffffffffffffffffffffffffffffffffffffff1681565b60066020528260005260406000208281548110610cf457fe5b906000526020600020018181548110610d0957fe5b9060005260206000200160009250925050508054600181600116156101000203166002900480601f016020809104026020016040519081016040528092919081815260200182805460018160011615610100020316600290048015610daf5780601f10610d8457610100808354040283529160200191610daf565b820191906000526020600020905b815481529060010190602001808311610d9257829003601f168201915b505050505081565b600260009054906101000a900473ffffffffffffffffffffffffffffffffffffffff1673ffffffffffffffffffffffffffffffffffffffff163373ffffffffffffffffffffffffffffffffffffffff1614610e47576040517f08c379a0000000000000000000000000000000000000000000000000000000008152600401610e3e90611b88565b60405180910390fd5b600073ffffffffffffffffffffffffffffffffffffffff166003600085815260200190815260200160002060030160009054906101000a900473ffffffffffffffffffffffffffffffffffffffff1673ffffffffffffffffffffffffffffffffffffffff161415610eed576040517f08c379a0000000000000000000000000000000000000000000000000000000008152600401610ee490611cc8565b60405180910390fd5b81600660008581526020019081526020016000209080519060200190610f1492919061108f565b506003600084815260200190815260200160002060020154600460006003600087815260200190815260200160002060030160009054906101000a900473ffffffffffffffffffffffffffffffffffffffff1673ffffffffffffffffffffffffffffffffffffffff1673ffffffffffffffffffffffffffffffffffffffff1681526020019081526020016000206000828254039250508190555080600460006003600087815260200190815260200160002060030160009054906101000a900473ffffffffffffffffffffffffffffffffffffffff1673ffffffffffffffffffffffffffffffffffffffff1673ffffffffffffffffffffffffffffffffffffffff16815260200190815260200160002060008282540192505081905550806003600085815260200190815260200160002060020181905550505050565b6040518060800160405280606081526020016000815260200160008152602001600073ffffffffffffffffffffffffffffffffffffffff1681525090565b8280548282559060005260206000209081019282156110de579160200282015b828111156110dd5782518290805190602001906110cd92919061116f565b50916020019190600101906110af565b5b5090506110eb91906111cf565b5090565b828054600181600116156101000203166002900490600052602060002090601f016020900481019282601f1061113057805160ff191683800117855561115e565b8280016001018555821561115e579182015b8281111561115d578251825591602001919060010190611142565b5b50905061116b91906111fb565b5090565b8280548282559060005260206000209081019282156111be579160200282015b828111156111bd5782518290805190602001906111ad9291906110ef565b509160200191906001019061118f565b5b5090506111cb9190611220565b5090565b6111f891905b808211156111f457600081816111eb919061124c565b506001016111d5565b5090565b90565b61121d91905b80821115611219576000816000905550600101611201565b5090565b90565b61124991905b80821115611245576000818161123c919061126d565b50600101611226565b5090565b90565b508054600082559060005260206000209081019061126a9190611220565b50565b50805460018160011615610100020316600290046000825580601f1061129357506112b2565b601f0160209004906000526020600020908101906112b191906111fb565b5b50565b6000813590506112c481611e94565b92915050565b6000813590506112d981611eab565b92915050565b600082601f8301126112f057600080fd5b81356113036112fe82611d50565b611d23565b9150818183526020840193506020810190508360005b83811015611349578135860161132f8882611353565b845260208401935060208301925050600181019050611319565b5050505092915050565b600082601f83011261136457600080fd5b813561137761137282611d78565b611d23565b9150818183526020840193506020810190508360005b838110156113bd57813586016113a388826113c7565b84526020840193506020830192505060018101905061138d565b5050505092915050565b600082601f8301126113d857600080fd5b81356113eb6113e682611da0565b611d23565b9150808252602083016020830185838301111561140757600080fd5b611412838284611e41565b50505092915050565b60008135905061142a81611ec2565b92915050565b60006020828403121561144257600080fd5b6000611450848285016112b5565b91505092915050565b60008060006060848603121561146e57600080fd5b600061147c868287016112ca565b935050602084013567ffffffffffffffff81111561149957600080fd5b6114a5868287016113c7565b925050604084013567ffffffffffffffff8111156114c257600080fd5b6114ce868287016113c7565b9150509250925092565b600080600080608085870312156114ee57600080fd5b600085013567ffffffffffffffff81111561150857600080fd5b611514878288016113c7565b9450506020611525878288016112ca565b93505060406115368782880161141b565b925050606085013567ffffffffffffffff81111561155357600080fd5b61155f878288016112df565b91505092959194509250565b60006020828403121561157d57600080fd5b600061158b8482850161141b565b91505092915050565b6000806000606084860312156115a957600080fd5b60006115b78682870161141b565b93505060206115c8868287016112b5565b92505060406115d9868287016112b5565b9150509250925092565b6000806000606084860312156115f857600080fd5b60006116068682870161141b565b935050602084013567ffffffffffffffff81111561162357600080fd5b61162f868287016112df565b92505060406116408682870161141b565b9150509250925092565b60008060006060848603121561165f57600080fd5b600061166d8682870161141b565b935050602061167e8682870161141b565b925050604061168f8682870161141b565b9150509250925092565b6116a281611df3565b82525050565b60006116b382611dcc565b6116bd8185611dd7565b93506116cd818560208601611e50565b6116d681611e83565b840191505092915050565b60006116ec82611dcc565b6116f68185611de8565b9350611706818560208601611e50565b80840191505092915050565b600061171f602083611dd7565b91507f4f6e6c792073797374656d2063616e206d6f646966792074656e656d656e74736000830152602082019050919050565b600061175f601f83611dd7565b91507f75736572277320616464726573732063616e6e6f7420626520656d7074792e006000830152602082019050919050565b600061179f601583611dd7565b91507f6e616d652063616e6e6f7420626520656d7074792e00000000000000000000006000830152602082019050919050565b60006117df602483611dd7565b91507f6e6577206f776e6572277320616464726573732063616e6e6f7420626520656d60008301527f7074792e000000000000000000000000000000000000000000000000000000006020830152604082019050919050565b6000611845603383611dd7565b91507f4f6e6c792063757272656e74206f776e65722063616e2072657175657374207460008301527f6f206368616e676520746865206f776e65722e000000000000000000000000006020830152604082019050919050565b60006118ab602083611dd7565b91507f4f6e6c792073797374656d2063616e207265676973746572206120757365722e6000830152602082019050919050565b60006118eb602883611dd7565b91507f63757272656e74206f776e6572277320616464726573732063616e6e6f74206260008301527f6520656d7074792e0000000000000000000000000000000000000000000000006020830152604082019050919050565b6000611951601b83611dd7565b91507f7573657269642063616e6e6f74206e6f7420626520656d7074792e00000000006000830152602082019050919050565b6000611991602083611dd7565b91507f6f776e6572277320616464726573732063616e6e6f7420626520656d7074792e6000830152602082019050919050565b60006119d1600083611de8565b9150600082019050919050565b60006119eb602683611dd7565b91507f4f6e6c792073797374656d2063616e206368616e67652074656e656d656e742060008301527f6f776e65727300000000000000000000000000000000000000000000000000006020830152604082019050919050565b6000611a51601c83611dd7565b91507f546869732074656e656d656e7420646f65736e277420657869737421000000006000830152602082019050919050565b6000611a91601d83611dd7565b91507f4f6e6c792073797374656d2063616e206164642074656e656d656e74730000006000830152602082019050919050565b611acd81611e37565b82525050565b6000611adf82846116e1565b915081905092915050565b6000611af5826119c4565b9150819050919050565b6000602082019050611b146000830184611699565b92915050565b60006020820190508181036000830152611b3481846116a8565b905092915050565b60006080820190508181036000830152611b5681876116a8565b9050611b656020830186611ac4565b611b726040830185611ac4565b611b7f6060830184611699565b95945050505050565b60006020820190508181036000830152611ba181611712565b9050919050565b60006020820190508181036000830152611bc181611752565b9050919050565b60006020820190508181036000830152611be181611792565b9050919050565b60006020820190508181036000830152611c01816117d2565b9050919050565b60006020820190508181036000830152611c2181611838565b9050919050565b60006020820190508181036000830152611c418161189e565b9050919050565b60006020820190508181036000830152611c61816118de565b9050919050565b60006020820190508181036000830152611c8181611944565b9050919050565b60006020820190508181036000830152611ca181611984565b9050919050565b60006020820190508181036000830152611cc1816119de565b9050919050565b60006020820190508181036000830152611ce181611a44565b9050919050565b60006020820190508181036000830152611d0181611a84565b9050919050565b6000602082019050611d1d6000830184611ac4565b92915050565b6000604051905081810181811067ffffffffffffffff82111715611d4657600080fd5b8060405250919050565b600067ffffffffffffffff821115611d6757600080fd5b602082029050602081019050919050565b600067ffffffffffffffff821115611d8f57600080fd5b602082029050602081019050919050565b600067ffffffffffffffff821115611db757600080fd5b601f19601f8301169050602081019050919050565b600081519050919050565b600082825260208201905092915050565b600081905092915050565b6000611dfe82611e17565b9050919050565b6000611e1082611e17565b9050919050565b600073ffffffffffffffffffffffffffffffffffffffff82169050919050565b6000819050919050565b82818337600083830152505050565b60005b83811015611e6e578082015181840152602081019050611e53565b83811115611e7d576000848401525b50505050565b6000601f19601f8301169050919050565b611e9d81611df3565b8114611ea857600080fd5b50565b611eb481611e05565b8114611ebf57600080fd5b50565b611ecb81611e37565b8114611ed657600080fd5b5056fea264697066735822122026e588220fb820e8db1b81f8735cf05f670329e1e427b0a47f8a9452ecfa127464736f6c63430006060033",
  "immutableReferences": {},
  "source": "pragma solidity ^0.6.0;\r\npragma experimental ABIEncoderV2;\r\n\r\n//import \"./Carbon.sol\";\r\n\r\ncontract Users {\r\n    mapping(address=>string) public name;\r\n    mapping(address=>string) userid;\r\n    address public system;\r\n    mapping(uint256=>Tenement) public tenements;\r\n    mapping(address=>uint256) public sequestrationRate;\r\n    uint256 public tenementCount;\r\n    mapping(uint256=>string[][]) public coordinates; //using id as identifyer as a user can have multiple tenements\r\n    \r\n    struct Tenement {\r\n        string name;\r\n        uint256 id;\r\n        uint256 sequestrationRate;\r\n        address owner;\r\n        //cannot include coordinates here as struct doesn't support mappings\r\n        //stored coordinates in the public variable called coordinates. it is connected to the tenements via Tenement.id\r\n    }\r\n    \r\n    constructor() public{\r\n        system = msg.sender;\r\n        tenementCount = 0;\r\n    }\r\n    function register(address payable _user,string memory _name, string memory _userid) public{\r\n        require(_user!=address(0),\"user's address cannot be empty.\");\r\n        require(keccak256(abi.encodePacked(_name)) != keccak256(abi.encodePacked(\"\")) , \r\n        \"name cannot be empty.\");\r\n        require(keccak256(abi.encodePacked(_userid)) != keccak256(abi.encodePacked(\"\")) , \r\n        \"userid cannot not be empty.\");\r\n        require (msg.sender==system, \"Only system can register a user.\");\r\n        name[_user] = _name;\r\n        userid[_user] = _userid;\r\n        \r\n    }\r\n    \r\n    function addTenement (string memory _name, address payable _owner , uint256 _sequestrationRate, string[][] memory _coordinates) public{\r\n        require(msg.sender==system, \"Only system can add tenements\");\r\n        require(_owner!=address(0),\"owner's address cannot be empty.\");\r\n        require(keccak256(abi.encodePacked(_name)) != keccak256(abi.encodePacked(\"\")) , \r\n        \"name cannot be empty.\");\r\n        uint256 _id = tenementCount;\r\n        Tenement memory tenement = Tenement(_name, _id, _sequestrationRate, _owner);\r\n        coordinates[_id] = _coordinates;\r\n        tenements[_id] = tenement;\r\n        tenementCount++;\r\n        sequestrationRate[_owner] += _sequestrationRate;\r\n    }\r\n    function modifyTenement(uint256 _id, string[][] memory _coordinates, uint256 _sequestrationRate) public {\r\n        require(msg.sender == system, \"Only system can modify tenements\");\r\n        require(tenements[_id].owner!=address(0),\"This tenement doesn't exist!\");\r\n        coordinates[_id] = _coordinates;\r\n        sequestrationRate[tenements[_id].owner]-=tenements[_id].sequestrationRate;\r\n        sequestrationRate[tenements[_id].owner]+=_sequestrationRate;\r\n        tenements[_id].sequestrationRate = _sequestrationRate;\r\n    }\r\n    function changeTenementOwner(uint256 _id, address _oldOwner, address _newOwner) public{\r\n        require(msg.sender==system, \"Only system can change tenement owners\");\r\n        require(_oldOwner!=address(0),\"current owner's address cannot be empty.\");\r\n        require(_newOwner!=address(0),\"new owner's address cannot be empty.\");\r\n        require(tenements[_id].owner == _oldOwner, \"Only current owner can request to change the owner.\");\r\n        tenements[_id].owner = _newOwner;\r\n        sequestrationRate[_oldOwner] -= tenements[_id].sequestrationRate;\r\n        sequestrationRate[_newOwner] += tenements[_id].sequestrationRate;\r\n    }\r\n}",
  "sourcePath": "D:\\Programming\\Ethereum\\Project\\carbon-credit-market---t319\\src\\backend\\contracts\\Users.sol",
  "compiler": {
    "name": "solc",
    "version": "0.6.6+commit.6c089d02.Emscripten.clang"
  },
  "schemaVersion": "3.1.0",
  "updatedAt": "2020-06-04T06:50:11.045Z",
  "networkType": "ethereum",
  "devdoc": {
    "methods": {}
  },
  "userdoc": {
    "methods": {}
  }
}